:100000000C94AE010C94F5010C94F5010C94F501DF
:100010000C94F5010C94F5010C94F5010C94F50188
:100020000C94F5010C94F5010C948A220C945E2337
:100030000C94FD1C0C94F5010C94F5010C94F50145
:100040000C94F5010C94F5010C94F5010C94F50158
:100050000C94F5010C94541D0C94F5010C94F501CD
:100060000C94F5010C94F5010C94F5010C94F50138
:100070000C94F5010C94F5010C94F5010C94F50128
:100080000C94F5010C94F5010C94F5010C94F50118
:100090000C94F5010C94F5010C94F5010C94F50108
:1000A0000C94F5010C94F5010C94F50153005400E7
:1000B000550056005F0060006100B2005C005D000A
:1000C0005E00570059005A005B00000062410000CA
:1000D00063002800010001000100005C0100010034
:1000E0000100010001000100010001000100010008
:1000F00001000100010000000100010000000000FB
:10010000000000002A2B2800000000000000000072
:100110000000000000000029000000002C1E342018
:10012000212224342627252E362D3738271E1F203E
:100130002122232425263333362E37381F04050683
:100140000708090A0B0C0D0E0F10111213141516C7
:100150001718191A1B1C1D2F3130232D35040506C5
:100160000708090A0B0C0D0E0F10111213141516A7
:100170001718191A1B1C1D2F3130354C00000000B8
:10018000000000000000000000000000000000006F
:10019000000000000000000000000000000000005F
:1001A0007E0F00D4FFFFFFC7000000780C0358004B
:1001B0004300480031003700000016035800430098
:1001C000480049004C0049004100520043004800EB
:1001D00000000403090409025B00030100A0FA09FE
:1001E0000400000103010100092111010001224066
:1001F000000705810308000A09040100020300004A
:1002000000092111010001222200070582032000BC
:100210000107050303200001090402000103000097
:100220000009211101000122B60007058403200006
:100230000A1201100100000008CC5817000100014B
:100240000200010660FF0961A1010962150026FF95
:10025000009520750881020963150026FF0095208E
:1002600075089102C005010902A10185020901A1D9
:100270000005091901290815002501950875018156
:10028000020501093009311581257F950275088124
:100290000609381581257F950175088106050C0A28
:1002A00038021581257F950175088106C0C00501BA
:1002B0000980A101850319012AB700150126B7009D
:1002C000950175108100C0050C0901A10185041973
:1002D000012AA002150126A002950175108100C017
:1002E00005010906A1018505050719E029E71500A3
:1002F00025019508750181020507190029EF1500F0
:10030000250195F07501810205081901290595055A
:1003100075019102950175039101C005010906A1BE
:1003200001050719E029E7150025019508750181E8
:10033000029501750881010507190029FF1500269E
:10034000FF00950675088100050819012905950526
:1003500075019102950175039101C00011241FBE22
:10036000CFEFDAE0DEBFCDBF04B603FE27C0809139
:100370008E0290918F02A0919002B09191028730ED
:10038000904BA740B04BD1F410928E0210928F0286
:10039000109290021092910214BE84B7877F84BF9E
:1003A0000FB6F894A89580916000886180936000F2
:1003B000109260000FBEE0E0F8E3099511E0A0E0C4
:1003C000B1E0E8E8FBE402C005900D92A43AB10761
:1003D000D9F722E0A4EAB1E001C01D92AE38B2071D
:1003E000E1F70E944A1F0C9487250C94000080FFBF
:1003F00003C0509A589808955098FCCF811108C0B6
:100400008AEA611101C089EA0E945E1281E00895C2
:100410008130E1F789EF6111F7CF8AEFF5CF81E005
:10042000089581E008950C94110208950C9415022A
:100430001F93CF93DF9300D000D00F92CDB7DEB7DC
:1004400049835A836B833091D80189819A81311114
:100450001DC06623B9F02223A9F00E94C819182FE5
:10046000682F89819A810E94751969817A81812F0B
:100470000F900F900F900F900F90DF91CF911F91E1
:100480000C94F80C0E94A119182FEFCF0E94C819E4
:1004900069817A81EDCFFC01262F408151816281F3
:1004A000738184810C941802CF93DF93EC0160E098
:1004B0000E944B02BE01DF91CF910C9416028F92E5
:1004C0009F92AF92BF92CF92DF92EF92FF920F93E3
:1004D0001F936B017C0181E090E0A0E0B0E04C0153
:1004E0005D0104C0880C991CAA1CBB1C4A95D2F75C
:1004F000B501A4014C015D0104C0880C991CAA1C23
:10050000BB1C2A95D2F7482959296A297B2904C09E
:10051000880F991FAA1FBB1F0A95D2F78A019B015A
:100520000C211D212E213F2104171507260737070F
:1005300089F48C299D29AE29BF29BC01CD011F91C9
:100540000F91FF90EF90DF90CF90BF90AF909F9072
:100550008F90089580959095A095B0958C219D21C0
:10056000AE21BF21EACF0F93382F262F60912002B2
:10057000709121028091220290912302042F432F37
:100580000E945F020F910C94B3180E9428060C94ED
:100590004D060C94500608950E94DF140E94CB0271
:1005A0002FEF84E39CE0215080409040E1F700C0B1
:1005B00000000C94781D0F931F93CF93DF938C0151
:1005C00061E00E944B02EC01B8010E94410B8823BC
:1005D000D9F1B801CE010E9413028823A9F1B80114
:1005E000CE010E942F0E882379F1B801CE010E941E
:1005F000810E882349F1B801CE010E94A40F8823FF
:1006000019F1F8018281882361F0CA35FDE5DF0721
:1006100021F170F4C115ECE5DE07A1F0CE3DDC451B
:10062000C9F0C801DF91CF911F910F910C940F0277
:10063000CB358DE5D807A1F0CC35DD4591F70E948B
:100640006F1AEFCF0E94CC0280E0DF91CF911F9113
:100650000F9108950E94E81BF7CF0E94781AE1CF0E
:100660000E947B1ADECFDF92EF92FF920F931F93CF
:10067000CF93DF93E82FF0E0E450FF4FD490282F82
:1006800026952695269530E0F901E456FE4F049113
:10069000877010E0082E02C0159507950A94E2F7BE
:1006A00001701127F901E457FE4FE490F12C082E58
:1006B00002C0F594E7940A94E2F791E0E922FF245E
:1006C000F901E458FE4FC491D0E002C0D595C7951A
:1006D0008A95E2F7C170DD270115110519F081EE49
:1006E0000E945F11E114F10419F086EE0E945F117F
:1006F0008D2D0E945E12EF2819F086EE0E94F111F6
:10070000012B19F081EE0E94F111CD2B51F08CE2FA
:10071000DF91CF911F910F91FF90EF90DF900C949C
:100720005E12DF91CF911F910F91FF90EF90DF90BC
:100730000895EF92FF920F931F93CF93DF93EC01F5
:10074000162F0AE08881882309F454C0813009F00B
:100750004EC08981813099F47E0122E0E20EF11CC5
:100760008A810E945E12E7012196812F815050F309
:10077000EFE9FFE03197F1F700C00000F7CF8230DA
:1007800041F47E0182E0E80EF11C8A810E945F1133
:10079000EACF833041F47E01E2E0EE0EF11C8A8163
:1007A0000E94F111E0CF843011F02196DDCF2A8133
:1007B000229690E080E0AE014F5F5F4F2053330BF5
:1007C0002A30310548F0019778F2EFE9FFE03197E0
:1007D000F1F700C00000F7CF089FB001099F700D2E
:1007E0001124C901860F971F2981EA01E4CF0E94D5
:1007F0003303BACFDF91CF911F910F91FF90EF900C
:10080000089560E00C9499030C94F70181E0089539
:100810000C940604CF93C82F0E9404048C2FCF9110
:100820000C94080490E080E008950895FC01EE0F18
:10083000FF1FE455FE4F859194910895CF93DF9368
:100840000E94F80C0E943305EC01811520E5920707
:1008500008F042C0811530E4930708F0BDC0883E1F
:10086000910528F5803E910508F09DC0883A9105D4
:1008700088F4853A910508F08FC08130910509F41C
:1008800092C0009709F48FC0049708F08CC0D0E0A4
:10089000C0E089C08F3B910508F489C0805C910954
:1008A000C03CD105A0F30E941604EC017CC0811568
:1008B000904250F4C11581E0D80708F074C0C03FE1
:1008C000D10528F3D0656FC0C11590E3D90708F0B2
:1008D00079C0CE019F70E7CF811525E5920758F5C5
:1008E000811534E5930708F0A6C0811542E5940709
:1008F00050F4C11581E5D80708F471C0DC2FCC276E
:10090000C16FD06A50C0982F969596959E0123701E
:100910003327C115D34508F07FC0C1E0D0E002C045
:10092000CC0FDD1F2A95E2F720E2929FC00111242F
:10093000C82BD92B6FC0C11589E5D807A8F4C115FC
:1009400098E5D90708F07CC0C11526E5D20708F064
:100950009ECF8C2F0E94CA05C82FD0E0DC2FCC2759
:10096000CC27DF71D0621FC0C1153AE5D30708F468
:100970006CC0CE0190568115904208F088CF8D2F23
:100980008F710E94CA0590E0982F882788279F7151
:100990009C012C2BE901E6CFC55AD0E0CD5BDE4FA0
:1009A000C881D0E0D064CE01DF91CF910895C85ABC
:1009B000D0E0CC0FDD1FCB5EDE4F0990D881C02D7B
:1009C000D464F1CFCE019927D3FF03C0EC01D86CDA
:1009D000EACFEC01D06CE7CFDF70D06AE4CFCE0174
:1009E000E4E096958795EA95E1F783702C2F26959C
:1009F0002695237090E2299F90011124382B8C2F8B
:100A00008370C1E0D0E002C0CC0FDD1F8A95E2F711
:100A1000C22BD32BDC68C7CFC1E0D0E002C0CC0F23
:100A2000DD1F2A95E2F730E2939FC0011124C82B05
:100A3000D92BDA68B8CFD82FCC27C46FD06AB3CF00
:100A4000DC2FCC27C06FD06AAECF8C2F8F700E9466
:100A5000CA0534E0D695C7953A95E1F7CF709C2F3B
:100A6000EC01D069A0CF82389105B1F1B0F48133A7
:100A7000910509F475C048F48932910509F469C0FB
:100A80008A32910509F473C008958533910509F4FC
:100A900059C08933910501F10895833E9105A9F16B
:100AA00038F4803E9105F9F0823E910549F10895B0
:100AB000863E9105A9F1873E9105C9F1843E9105D5
:100AC00019F52091720221FF1FC08091710284FDEF
:100AD00014C087EE90E00895209171022370A1F078
:100AE00080EE90E008952091710220FD47C0309182
:100AF000720230FF09C024FF44C090E080E004C0CF
:100B00002091710222FDF7CF08952091710222FDFC
:100B10003BC03091720230FDE3CF24FFF5CFEDCF23
:100B20002091710223FFF0CF24FDE7CFD2CF209197
:100B3000710223FD2CC03091720231FFEECF84EEA2
:100B400090E008952091710225FFDECF89E290E0C8
:100B500008952091710225FFD7CF85E390E0089595
:100B60002091710226FFD0CF8AE290E00895209173
:100B7000710226FFC9CF81E390E0089589E390E0F8
:100B8000089583EE90E0089582EE90E0089586EE59
:100B900090E008959091710292FF06C0282F28716D
:100BA0002830F9F4877F846093FF06C0282F2871CE
:100BB0002831F1F4877E84612091720220FF06C003
:100BC000382F38713830D9F4877F816021FF06C013
:100BD000282F28712831D1F4877E816194FD877E8A
:100BE0000895282F24712430F9F68B7F8860DCCF9C
:100BF000282F2471243101F78B7E8861DDCF382FB7
:100C00003171313019F78E7F8860E0CF282F217144
:100C1000213121F78E7E8861E1CF0C941B0B0E945D
:100C2000AD062FEF86E791E0215080409040E1F73C
:100C300000C000000E94AD0680E00E94520680FFC6
:100C400004C00E940D060C94781D08950C940F06A4
:100C50000E94431B811102C00E94E81B0E944E1B90
:100C600080934D020E94561B9093720280937102F2
:100C70000E9426060E94521B682F70E090E080E0E0
:100C80000E947718609120027091210280912202C7
:100C9000909123020C94B11808950C944C06089579
:100CA0000C944F06E82FF0E0E858FD4F808108953E
:100CB000089580EA8A95F1F7089500C008950C948C
:100CC0005906F894E82FE295EF70F0E031A1282F53
:100CD0002F7081E090E001C0880F2A95EAF7982FE5
:100CE0009095932391A392A1892B82A37894089540
:100CF00087E60E94610686E60E94610686E30E94FE
:100D0000610685E30E94610684E30E94610680EF2C
:100D10000E94610681EF0E94610684EF0E946106D5
:100D200085EF0E946106A3E7B2E01C92E8E7F2E0DB
:100D3000108211961C921197118212961C92129792
:100D4000128213961C921397138214961C9214828B
:100D500085E00E9424070C94C502CF92DF92EF92A7
:100D6000FF920F931F93CF93DF93CAE4D1E003E781
:100D700012E0D12CEE24E394F12C8991F894E82F21
:100D8000E295EF70F0E021A18F70A70102C0440F3F
:100D9000551F8A95E2F7CA01922F982B91A392A131
:100DA0008095892382A378940E945D06E6E4F1E0B1
:100DB00030E020E0C12C4191A42FA295AF70B0E0AB
:100DC00090968C9190E04F7002C0959587954A95CA
:100DD000E2F780FD35C08E2D022E01C0880F0A94E7
:100DE000EAF7C82A2F5F3F4F2430310521F7FE0173
:100DF000319780810E9461060E945F06F801808120
:100E0000C81601F1C08281E0D82A0F5F1F4FF1E0C0
:100E1000CF34DF0709F0B1CF2D2D45E068E772E050
:100E200083E792E00E9425070E94C9028D2DDF9181
:100E3000CF911F910F91FF90EF90DF90CF90089589
:100E400080E0CFCF80E0E0CF0895FF920F931F9313
:100E5000CF93DF93F82E092F162FD72FC42F2223DD
:100E600049F081E08093A8010E942D1D9093A70175
:100E70008093A6018091A8018823A1F08091A6010A
:100E80009091A7010E94451D069760F0EF2DF02F6D
:100E9000A12FBD2FCE0FDF2FD11DEC17FD0741F481
:100EA0001092A801DF91CF911F910F91FF900895AB
:100EB00081918D93F2CF8091AF0180FF12C060913C
:100EC000050185E0689FB0011124759567957595BA
:100ED000679560387105A8F561157105A1F1862F38
:100EE000089581FF09C06091050185E0689FB00108
:100EF000112475956795EDCF6091050182FD0AC0BB
:100F00008091AE018823D1F0909104016091050198
:100F1000891728F085E0689FB0011124DACF869FF9
:100F2000B001112485E0869F9001879F300D112428
:100F3000692F70E0C9010E941025CBCF65E070E0F9
:100F4000CECF8FE7089581E008958091AF0180FFB3
:100F50000CC06091010170E0759567957595679576
:100F60006115710549F1862F089581FF06C06091D2
:100F7000010170E075956795F3CF6091010182FDE5
:100F80000BC09091AD019923A1F060910001809177
:100F90000101961738F0682F70E06038710500F392
:100FA0008FE70895899FC001112470E00E941025E9
:100FB000F4CF61E070E0D7CF81E00895803F31F455
:100FC0000E945B0781958093B3010895813F19F4D6
:100FD0000E945B07F8CF823F31F40E945B07819546
:100FE0008093B2010895833F19F40E945B07F8CF04
:100FF000893F29F40E94A5078093B40108958A3F90
:1010000021F40E94A5078195F7CF8B3F31F40E9410
:10101000A50781958093B50108958C3F19F40E942E
:10102000A507F8CF9CE0980F953070F4845F990B7A
:1010300021E030E001C0220F8A95EAF78091B101EA
:10104000822B8093B10108958D3F31F48091AF01DF
:1010500081608093AF0108958E3F21F48091AF01AC
:101060008260F7CF8F3FB9F78091AF018460F1CFF5
:101070004091B201803F59F48091B30187FF0DC0C8
:101080001092B30141110BC01092AE0108C0813F14
:1010900081F48091B30118169CF3442381F0809170
:1010A000B4019091B501892B09F05AC01092AD019D
:1010B0000895823F49F447FFF0CF1092B20180912A
:1010C000B3018111ECCFE0CF833F19F41416ACF3D8
:1010D000E4CF9091B401893F29F41916F4F61092E7
:1010E000B401DBCF8A3F19F497FFD7CFF8CF9091A7
:1010F000B5018B3F29F497FFD0CF1092B501CDCF2A
:101100008C3F19F41916CCF3C8CF9CE0980F95309A
:1011100090F4845F990B21E030E0B90102C0660FC2
:10112000771F8A95E2F7CB0180959091B1018923D1
:101130008093B101B2CF8D3F31F48091AF018E7FAA
:101140008093AF01AACF8E3F21F48091AF018D7FB4
:10115000F7CF8F3F09F0A1CF8091AF018B7FF0CF08
:1011600008950E942D1D9C019091B2018091B301C0
:10117000982B21F03093AC012093AB019091B401F6
:101180008091B501982B21F03093AA012093A901F9
:1011900080EB91E00C94F90FEF92FF920F931F9365
:1011A000CF93DF9300D000D000D0CDB7DEB786E07C
:1011B000E0EBF1E0DE01119601900D928A95E1F7E6
:1011C000E090B201F090B3010091B4011091B5012B
:1011D0001092B2011092B3011092B4011092B501B5
:1011E0008E2D8F2991F08091AB019091AC010E94DE
:1011F000451DAC019091AE01992309F43FC0809147
:1012000006018417150608F447C0802F812B91F042
:101210008091A9019091AA010E94451DAC01909175
:10122000AD01992309F477C0809102018417150656
:1012300008F47FC08091B2019091B301892B909105
:10124000B401892B9091B501892B11F00E94B1084E
:1012500086E0FE013196A0EBB1E001900D928A95F7
:10126000E1F726960FB6F894DEBF0FBECDBFDF9133
:10127000CF911F910F91FF90EF900895209107015A
:101280008AE0289F900111242417350708F0BDCF6C
:101290009F5F9093AE0102C09F3FD1F7EE2059F0BF
:1012A0000E945B079FEF1E140CF491E0899F802D34
:1012B00011248093B201FF2059F00E945B079FEF39
:1012C0001F140CF491E0899F802D11248093B301A9
:1012D0003091B201332309F498CF2091B301222336
:1012E00009F493CF45EB3403C0011124992359F03D
:1012F0009093B20145EB240390011124332339F07C
:101300003093B30182CF81E08093B201F3CF81E0CB
:101310008093B3017ACF209103018AE0289F900146
:1013200011242417350708F085CF9F5F9093AD01F6
:1013300002C09F3FD1F7002359F00E94A5079FEFFD
:1013400010160CF491E0899F802D11248093B40134
:10135000112359F00E94A5079FEF11160CF491E09C
:10136000899F802D11248093B5013091B4013323DE
:1013700009F460CF2091B501222309F45BCF45EB3E
:101380003403C0011124992359F09093B40145EB23
:10139000240390011124332339F03093B5014ACF4F
:1013A00081E08093B401F3CF81E08093B50142CF17
:1013B00086E0E0EBF1E0DF011D928A95E9F71092FB
:1013C000AE011092AD011092AF0108950C94FE0190
:1013D000AF92BF92CF92DF92EF92FF920F931F9343
:1013E000CF93DF93A1E6B1E02FE531E08AEBA82EA1
:1013F00081E0B82E63E671E041E050E00D91802F6E
:1014000082958F7090E0FC01C1A10F707A01002ECF
:1014100001C0EE0C0A94EAF7FE2DF095CF23FC01F3
:10142000C1A3C2A1CE29C2A3E90119919E01E12F56
:10143000E295EF70F0E0F1A01F706A01012E01C08B
:10144000CC0C0A94EAF7EC2CE094EF20E1A2F2A095
:10145000FC28F2A2EC0188A190E002C09595879546
:101460000A95E2F78170E0A1F0E002C0F595E795FA
:101470001A95E2F790E0E0FD92E0892BF501819367
:101480005F016A177B0709F0B9CFDF91CF911F91F8
:101490000F91FF90EF90DF90CF90BF90AF900895A5
:1014A0006F927F928F929F92AF92BF92CF92DF9274
:1014B000EF92FF920F931F93CF93DF930AEB11E00C
:1014C00081E6C82E81E0D82E9FE5E92E91E0F92E25
:1014D00028EB822E21E0922EC6EBD1E0712C612CFC
:1014E00034E0A32EB12CD801EC91EE0FEE0FED936A
:1014F0008D01D6012D916D01A22FA295AF70B0E0A4
:1015000090968C9190E02F7002C0959587952A95C2
:10151000E2F781709927D7014D917D01A42FA29503
:10152000AF70B0E090962C9130E04F7002C03595CE
:1015300027954A95E2F7A9014170552720FF02C07F
:1015400042E050E0842BE82BD8011197EC93EF7028
:10155000F0E0E15BFE4F8081F4019081890F808390
:1015600020E0843044F088818F5F888360E0872D9D
:101570000E94E60921E0D4018C918D3F44F48881DA
:101580008150888361E0872D0E94E60921E0F40103
:101590008081082E000C990BB5010E941025D40102
:1015A0008D934D01622A2196B1E07B1210C0862DE9
:1015B000DF91CF911F910F91FF90EF90DF90CF902F
:1015C000BF90AF909F908F907F906F9008957724F9
:1015D000739489CF83E290E00E944525813289F49B
:1015E00084E290E00E944525893059F485E290E03C
:1015F0000E94452591E0823109F090E0892F8170A9
:10160000089580E0FCCFCF93C82F6FEF811161E286
:1016100083E290E00E9453256FEFC11169E084E2FC
:1016200090E00E9453256FEFC11162E185E290E0E6
:10163000CF910C94532580E00E94030B0C943D1B2A
:10164000089586E290E00E944525682F70E090E0C2
:1016500080E0089586E290E00C9453250E94200BD0
:101660000E94EA0A81110CC060E070E0CB010E9488
:101670002A0B0E94720C0E945C0D81E00C94030BFB
:101680000895CF93FB01C281CC2309F19C01225123
:101690003F452031310520F582510E946C0DC0E09C
:1016A0008C2FCF91089581E00E94D91843E062E029
:1016B00081E00E94B302F3CF81E00E94FA1843E078
:1016C00062E081E00E94B302EBCF82E0F6CF80318E
:1016D000FFE59F0789F381319F45B9F3C1E0E0CF72
:1016E0008031EFE59E07F9F281319F45C9F682E02E
:1016F000DBCF2FEFFC0120830895EF92FF920F9331
:101700001F93CF93DF93EC01062FE881E150E33183
:1017100008F05EC0F0E0E757FA4D0C9424251982DA
:1017200089E08A83602FCE01DF91CF911F910F91C5
:10173000FF90EF900C943F1E8981823069F08330D6
:1017400071F08130D9F40E94391D0E942A256A83E4
:101750007B838C839D83E6CF0E94210BF6CF7E0195
:1017600082E0E80EF11C10E0812F0E945206F70182
:1017700081937F011F5F1530B9F7D4CF602FCE0161
:101780000E94790BCFCF89818230C1F76A817B813A
:101790008C819D810E942A250E942A0BC3CF4B81F8
:1017A0006A8189810E94440C9827892798279D8304
:1017B0008C83B8CF2C813D813227232732274B8160
:1017C0006A8189810E945D0CADCF0E94720CAACF04
:1017D0008FEF8883A7CF0E94050D8983A3CF0E9436
:1017E000070D9827892798279A8389839BCF6B8138
:1017F00070E089819A81AE014C5F5F4F98278927FD
:1018000098270E940A0D8ECF6B8170E089819A81A2
:10181000AE014C5F5F4F9827892798270E94310DB2
:1018200081CF0E945C0D7ECF0E94310CD6CF6B81A0
:1018300070E089819A81AE014C5F5F4F98278927BC
:1018400098270E94AA0C6ECF6B8170E089819A81E3
:10185000AE014C5F5F4F9827892798270E94CF0CD5
:1018600061CF84E0089598E0699FB001112450E0B1
:10187000440F551F640F751F98E2899F600D711DFD
:101880001124CB01879608950F931F93CF93DF9375
:101890000E94330C8C010E944525C82FD0E0DC2F1C
:1018A000CC27C80101960E9445259E01282BC9011D
:1018B000DF91CF911F910F9108950F931F93CF93B5
:1018C000DF93122F032F0E94330CEC01602F0E9434
:1018D0005325612FCE010196DF91CF911F910F917A
:1018E0000C945325AF92BF92CF92DF92EF92FF926A
:1018F0001F93CF93DF938CEAC82E80E0D82ED0E0E0
:101900007601C0E014C0F50125913491412F6C2F70
:101910008D2F0E945D0C82E0A80EB11C1F5F143059
:1019200091F788E0E80EF11CCF5FC53019F0570140
:1019300010E0E9CFDF5F88E2C80ED11CD43001F798
:10194000DF91CF911F91FF90EF90DF90CF90BF90EC
:10195000AF900895EF92FF920F931F93CF93DF9371
:10196000EC018A017C01E60EF71ECE018796CE15AA
:10197000DF0539F4DF91CF911F910F91FF90EF9028
:101980000895C03AD10540F40E944525F8018083AE
:101990000F5F1F4F2196E9CFF8011082F9CFCF9248
:1019A000DF92EF92FF920F931F93CF93DF937C010F
:1019B0006A018C01060F171FEC01CE018796C01734
:1019C000D10749F4DF91CF911F910F91FF90EF90D4
:1019D000DF90CF900895C03AD10540F4FE01EE1992
:1019E000FF09EC0DFD1D60810E9453252196E5CF76
:1019F000462F843038F4753028F4643018F4672F9B
:101A00000C94440C90E080E0089580E1089589E30F
:101A100093E00895EF92FF920F931F93CF93DF937C
:101A2000EC018A017C01E60EF71ECE0189539F4F1F
:101A3000CE15DF0539F4DF91CF911F910F91FF9003
:101A4000EF900895C93323E0D20740F40E94452562
:101A5000F80180830F5F1F4F2196E7CFF8011082B6
:101A6000F9CFCF92DF92EF92FF920F931F93CF9314
:101A7000DF937C016A018C01060F171FEC01CE0178
:101A800089539F4FC017D10749F4DF91CF911F9120
:101A90000F91FF90EF90DF90CF900895C93323E02E
:101AA000D20740F4FE01EE19FF09EC0DFD1D608127
:101AB0000E9453252196E3CFCF93DF93C7ECD0E06C
:101AC00060E0CE010E9453252196C11584E0D8071D
:101AD000B9F7DF91CF910895DF92EF92FF920F93C4
:101AE0001F93CF93DF9300D000D0CDB7DEB7F82E91
:101AF0008FE08F1540F08FEF93E00E94452507ECB3
:101B000010E08823C1F00F900F900F900F90DF919D
:101B1000CF911F910F91FF90EF90DF9008950115E5
:101B200084E0180781F3C8010E944525811101C096
:101B3000FA940F5F1F4FF110F2CF19821A821B82A5
:101B40001C82DD24D39478018FEFE81AF80AC801CB
:101B50000E94452589831A828823A9F29FEF980F56
:101B6000933078F48A83D9820E5F1F4FC7010E9499
:101B700045258B83882339F2CE0101960E9401040A
:101B8000E2CF8701F9CF0F931F93CF93DF93C42F39
:101B9000D22FFC0182818823C9F04093BE010E94AC
:101BA0002D1D9093BD018093BC0180E28C0F883085
:101BB00008F050C0C77081E001C0880FCA95EAF7ED
:101BC000DF91CF911F910F910C9466121091BE017D
:101BD000141335C08091BC019091BD010E94451D38
:101BE000883C910560F5C0E2CD0F1D17B9F080E289
:101BF000810F883040F4177081E001C0880F1A957A
:101C0000EAF70E946D12C83048F481E09D2F97706A
:101C100001C0880F9A95EAF70E946612802F0E94F1
:101C20005E12C830B8F4D77081E001C0880FDA9531
:101C3000EAF7DF91CF911F910F910C946D1280E222
:101C40008C0F883038F4C77081E001C0880FCA95C6
:101C5000EAF7EFCFDF91CF911F910F9108950F9386
:101C60009C01CB01233F4CE5340759F1A8F4283DF2
:101C7000FCE53F0701F1293D4CE53407D1F1273D53
:101C80003C4591F406E221EE41EE67ED7CE50E94D1
:101C9000C30D80E00F910895253FFCE53F07E9F073
:101CA000B0F0263F3C45F9F0FC018281882339F1F0
:101CB0001092BE01EFCF07E225EE45EE68ED7CE520
:101CC000E6CF06E221EE40EE63EF7CE5E0CF07E2EF
:101CD00025EE44EE64EF7CE5DACF06E221EE42EE3B
:101CE00065EF7CE5D4CF07E225EE46EE66EF7CE5B6
:101CF000CECF08E221E045EE69ED7CE5C8CF81E07A
:101D0000C9CFCF93DF93EC01FB018281882309F4D3
:101D100019C1C230FCE5DF07C0F1C6319CE5D90727
:101D200030F09E012A5F3C452930310570F50E9454
:101D3000561B9093720280937102C031ECE5DE076E
:101D400009F4CFC008F05BC0C8308CE5D80709F4AF
:101D5000B6C088F5C430ECE5DE0709F4A8C0C0F4CD
:101D6000C2308CE5D80709F49CC080917102826072
:101D7000C330DC4509F498C08091710290917202E1
:101D80000E94641B0E94DF1480E0DF91CF910895D0
:101D9000809171028061C630ECE5DE0709F484C0F1
:101DA000809171028860C730DC4508F47DC0809165
:101DB0007102806279C0CC308CE5D80709F489C003
:101DC00070F4809171028C60CA30ECE5DE0709F492
:101DD0006BC008F478C0809171028E7F65C0CE30F0
:101DE0008CE5D80709F479C0809171028B7FCF30E0
:101DF000DC4508F459C0809171028F7E55C0CB3FFD
:101E0000ECE5DE0709F457C030F5C3318CE5D8079F
:101E100009F46FC078F4C131ECE5DE0709F465C060
:101E2000C231DC4509F0A8CF0E94DF148091710215
:101E30008F773AC0C5318CE5D80709F462C008F441
:101E400076C0809172028160CA3FDC4509F094CF70
:101E50008093720291CFCF3FFCE5DF0709F44DC0BC
:101E600088F4809172028D7FCD3F9CE5D90781F384
:101E7000809172028E7FCE3FDC4550F380917202DA
:101E80008360E6CFC130FDE5DF0709F459C008F4EF
:101E900044C080E0C230DD4509F06ECF0E94EA1BED
:101EA0006BCF8091710281608093710265CF8091C8
:101EB00071028460F9CF809172028260C9CF8091F3
:101EC00071028064F1CF0E94DF14809171028068FA
:101ED000EBCF809171028D7FE7CF80917102877F78
:101EE000E3CF809171028F7DDFCF809171028F7B74
:101EF000DBCF80917102837FD7CF809172028C7F7C
:101F0000A7CF8091710282FB992790F921E0922757
:101F100090FB82F990FB83F9C7CF80917202982FD2
:101F2000909591708E7F892B90FB81F991CF0E94C3
:101F3000DF1490917102892F97FB87F98058B4CFF5
:101F400081E0ACCF81E021CFCF93DF93EB018631ED
:101F50009C4511F50E947E1A9A81992399F08A7AFC
:101F600091E009F490E09093BF01811109C089E2EA
:101F70000E94381A0E94CE1A80E0DF91CF91089516
:101F800085E3F6CF8091BF01811104C089E20E94F0
:101F90003F1AF0CF85E3FBCF81E0EFCF9093C501EF
:101FA0008093C4010895E091C401F091C501309778
:101FB00021F00190F081E02D099480E00895E091F6
:101FC000C401F091C501309799F0209114012223AA
:101FD00059F02091710227FF07C0DC012C91119666
:101FE0002C93119725E02C930280F381E02D099426
:101FF0000895E091C401F091C501309739F022E0D5
:10200000DC012C930480F581E02D09940895209142
:10201000C2013091C3012817390771F09093C301B1
:102020008093C201E091C401F091C501309721F085
:102030000680F781E02D099408952091C001309128
:10204000C1012817390771F09093C1018093C00135
:10205000E091C401F091C501309721F00084F18531
:10206000E02D099408950E94391D6093D401709366
:10207000D5018093D6019093D7016093D0017093DE
:10208000D1018093D2019093D30108950E94391D0C
:102090006093D4017093D5018093D6019093D701BA
:1020A0006093CC017093CD018093CE019093CF01CA
:1020B000089585B7806885BF85B7806885BF089516
:1020C000089508950C94601008950C9464100E9473
:1020D00059108BE39BE10E949C1D0E9461100C949F
:1020E000621081E008950C947110089508950E9483
:1020F00075100C9476100E94241D0E9478060E9490
:102100002E0B0E94E8090C946510AF92BF92CF92FB
:10211000DF92EF92FF920F931F93CF93DF93CDB790
:10212000DEB72A970FB6F894DEBF0FBECDBF0E9470
:10213000AD0681110E94331087ECA82E81E0B82EE5
:1021400010E000E0C02E802F0E945206E82EF5011C
:10215000F1905F01F81609F453C080914D0281FDA2
:102160000E9458068F2D8E25D12CFF24F394982F92
:102170009F2109F440C00E947310882399F0DE82E9
:10218000CF82EF2081E009F480E088870E942D1D36
:102190008160782F9A8789874E815F8168858A85DB
:1021A0000E942811F801E953FE4F8081F826F08241
:1021B0000E94500A81110E9446100E94CC080E9481
:1021C000D30F9091C601891791F10E94D30F80938C
:1021D000C6012A960FB6F894DEBF0FBECDBFDF91C1
:1021E000CF911F910F91FF90EF90DF90CF90BF9014
:1021F000AF900C940A04D394FF0CF4E0DF12B7CF35
:102200000F5F1F4F0530110509F09CCF8FEF8983B9
:102210008A831B820E942D1D8160782F9D838C8371
:1022200049815A816B818D810E942811C1CF2A96E4
:102230000FB6F894DEBF0FBECDBFDF91CF911F91D7
:102240000F91FF90EF90DF90CF90BF90AF900895E7
:10225000DF92EF92FF920F931F93CF93DF93CDB74F
:10226000DEB72B970FB6F894DEBF0FBECDBF7A87CF
:102270008B87F42E052F162FE72ED82E61110E9482
:102280009E1A1E821D827E2DEC82DD824F2D502FE4
:10229000612F8D2D9E812B960FB6F894DEBF0FBE59
:1022A000CDBFDF91CF911F910F91FF90EF90DF9005
:1022B0000C945517FC01808191810C940A1ACF93DC
:1022C000C82F882309F48BC08238C1F40E94D30F31
:1022D00081FD85C089E30E94381A0E94CE1A2FEF33
:1022E00081EE94E0215080409040E1F700C0000072
:1022F00089E30E943F1ACF910C94CE1A8338A1F43F
:102300000E94D30F80FD6BC083E50E94381A0E94A3
:10231000CE1A2FEF81EE94E0215080409040E1F7FB
:1023200000C0000083E5E5CF8438A1F40E94D30FFC
:1023300082FD55C087E40E94381A0E94CE1A2FEF02
:1023400081EE94E0215080409040E1F700C0000011
:1023500087E4CFCF8CEF8C0F813A90F46C2F809173
:102360000801909109010E94031C882329F08C2FF9
:102370000E943F1A0E94CE1A8C2F0E94381ABBCF9F
:1023800080E28C0F883048F4C77081E001C0880F6C
:10239000CA95EAF70E94811AAECFEBE5EC0FE33065
:1023A00040F4F0E0EF56FE4F808190E0CF910C9426
:1023B0000710E8E5EC0FE73150F4F0E0EE0FFF1FF7
:1023C000ED59FE4F80819181CF910C941D10C03F3B
:1023D00030F08C2F0E94DE07CF910C94B108CF9182
:1023E0000895882309F452C0823871F40E94D30FF3
:1023F00081FF4CC089E30E94381A0E94CE1A89E3FB
:102400000E943F1A0C94CE1A833859F40E94D30FBD
:1024100080FF3CC083E50E94381A0E94CE1A83E5F3
:10242000EFCF843859F40E94D30F82FF2FC087E486
:102430000E94381A0E94CE1A87E4E2CF9CEF980FD0
:10244000913AF0F290E2980F983050F4877091E052
:1024500001C0990F8A95EAF7892F0E94871AD2CF77
:102460009BE5980F933020F490E080E00C940710E7
:1024700098E5980F973120F490E080E00C941D10BF
:10248000803F20F00E9438080C94B10808951F93F3
:10249000CF93DF93182FEB010E945F11209731F447
:1024A000812FDF91CF911F910C94F1118FE99FE063
:1024B0000197F1F700C000002197F0CF70E060E0D5
:1024C000893311F460E570E00C944712882321F001
:1024D0000E94811A0C94CE1A0895882321F00E943C
:1024E000871A0C94CE1A0895BF92CF92DF92EF9282
:1024F000FF920F931F93CF93DF936C01D62FC72FBB
:10250000FC011281058102950F700E94561AE82E77
:102510008823A1F0E12E112389F08C2F807F803455
:1025200029F080E28D0FE12C883040F082E00E949B
:102530001F1B0E94561A91E0E82EE926BC2EB29489
:102540009FE0B922EB2DF0E0E456FA4D0C942425DF
:102550000C2F0F70C07F11F00295007F1123A9F09E
:10256000002359F080E28D0F883010F0D11109C09E
:10257000802F0E94811A0E94CE1A8D2F0E945F1117
:1025800014C0802F0E94911AF6CF8D2F0E94F11156
:10259000002359F080E28D0F883010F0D1112CC04B
:1025A000802F0E94871A0E94CE1A2B2D2850330BA1
:1025B0002430310520F40E94D30F0E940A04EE203B
:1025C00009F49EC10E94521A80FD9AC1F60112823E
:1025D0000E944C1A0E94D918C6010E94A1140E94A0
:1025E0004C1ADF91CF911F910F91FF90EF90DF90E8
:1025F000CF90BF900C94FA18802F0E94971AD3CFD7
:10260000FC2FFF70FF2EC07FC03219F0F29480EFD4
:10261000F822DD2369F0D13049F1112391F1002333
:1026200051F1F601858180FFA8CF8F70858323C08B
:10263000112381F0011106C00E94B11A8F290E9456
:102640006612B3CF0130C1F70E94B11A8F290E94E0
:10265000B71AABCF011106C00E94C41A8F2D0E9479
:102660006D12A3CF013009F4A0CFF6CF112329F0CA
:10267000063008F09ACF8F2DE2CF053008F095CFC5
:10268000EDCF002359F3D93349F4FFEF27EE33E0C0
:10269000F15020403040E1F700C000008D2F0E9433
:1026A000F11183CF8C2F86958695837069F08130E8
:1026B00009F07BCF8D2F9C2F9370111102C090E0F9
:1026C00080E00E941D1071CF8D2F9C2F93701111EF
:1026D00002C090E080E00E94071067CF8D2F112389
:1026E00029F00E94DE070E94B1085FCF0E943808DF
:1026F000FACF8C2F837009F041C0111156CF4D2FA6
:10270000429546954770440F440F0D2F0F7010E00F
:1027100030E020E0042E04C0000F111F221F331FE1
:102720000A94D2F760E070E0CB01D4FF0FC06FE0F5
:1027300070E080E090E004C0660F771F881F991F4B
:102740004A95D2F76095709580959095C695C695F7
:10275000C370602B712B822B932BC23049F058F43D
:10276000C13019F00E948B1820CF0E9479181DCF1C
:102770000E949D181ACF0E94771817CF86951123B3
:1027800011F08C2F8170882309F40FCF4D2F4295C3
:1027900046954770440F440F0D2F0F7010E030E046
:1027A00020E0042E04C0000F111F221F331F0A94C3
:1027B000D2F760E070E0CB01D4FF0FC06FE070E0B3
:1027C00080E090E004C0660F771F881F991F4A952C
:1027D000D2F76095709580959095C695C695C37013
:1027E000602B712B822B932BC23049F058F4C130EF
:1027F00019F00E945019D9CE0E943E19D6CE0E94DF
:102800006219D3CE0E94B318D0CECF70112329F015
:102810008C2F0E94D9188D2F12CF8D2F0E946D12F0
:102820008C2F0E94FA18C1CED23F89F160F4D03FBC
:10283000C9F0D13F29F1112309F442C001119DCE05
:102840008C2F8F7121C0D33F39F1D43FA1F71123D1
:1028500069F1CF718C2F0E94D91863E08C2F0E94F0
:10286000041BA3CE112341F0053008F09ECE8C2F1F
:102870008F710E941D1999CE063008F096CEF7CFC1
:102880008C2F8F71112369F20E94D9188ECE8C2F54
:102890008F711123C9F3C5CF112329F08C2F8F71AC
:1028A0000E94C41882CE0E94BF187FCE81E00E9491
:1028B0001F1B023008F479CE82E00E941F1B75CEE8
:1028C000002359F0D93309F0E9CE8FEF97EEE3E01A
:1028D00081509040E040E1F7DFCE8C2F8F71A1CF87
:1028E0004C2F4F706D2FC6010E9412040E94EF17EB
:1028F0005CCE4C2F4F706D2FC6010E94150455CE33
:10290000DF91CF911F910F91FF90EF90DF90CF90CB
:10291000BF9008950F931F93CF93DF93EC016881CD
:1029200079818A810E94141A8C010E9474190E9474
:102930007618B801CE01DF91CF911F910F910C94C1
:102940007412CF93DF93EC018B819C81892B29F04A
:102950008881998189238F3F59F4DF91CF91089520
:10296000CE010E948A14CE01DF91CF910C945402C3
:10297000CE010E94DB028111F3CF0E94561A8823F8
:1029800061F38A81882349F382E0DF91CF910C942F
:102990001F1B90E080E00E94071090E080E00E9402
:1029A0001D100E949E1A0E94AE1A0E94CE1A0E940A
:1029B000D8090C94B1080E94461A0C94C9140E94BC
:1029C0008E1A0C94DB14E92FE295EF70E250EE3092
:1029D00070F4F0E0E455FA4D0C942425803F19F092
:1029E00020F4883E20F481E00895843FE1F380E004
:1029F0000895883EC0F3813FD1F7F5CF93FB882738
:102A000080F908950E940A1A0C94E314CF93DF937F
:102A100000D000D00F92CDB7DEB70F900F900F907F
:102A20000F900F90DF91CF910895CF93DF9300D057
:102A300000D000D0CDB7DEB726960FB6F894DEBF33
:102A40000FBECDBFDF91CF9108951F93CF93DF933A
:102A5000C091D90116E08091DA018C1304C0DF9196
:102A6000CF911F910895D0E01C9FF0011D9FF00DA4
:102A70001124E552FE4F408151816281738184812E
:102A800095810E9415152196C770E5CF40910B02E4
:102A900050910C0260910D0270910E0280910F0214
:102AA000909110020C9415151F93CF93DF93809192
:102AB0001002807FA9F480910D02882389F0809113
:102AC000D901C091DA0160910B0270910C02A091C2
:102AD0000E02B0910F02D62FD72316E0C81304C000
:102AE000DF91CF911F91089590E0109711F0DF3F93
:102AF00019F401968770F2CF189F9001199F300D3D
:102B00001124F901E552FE4F41814713F2CF408174
:102B10004613EFCF42814111ECCF438154814A1BD0
:102B20005B0B483C510528F7809110028F70806143
:102B300080931002F901E052FE4F80818F70806116
:102B400080838BE092E00E94A114DF91CF911F91CE
:102B50000C942515AF92BF92CF92DF92EF92FF9225
:102B60000F931F93CF93DF93CDB7DEB761970FB667
:102B7000F894DEBF0FBECDBF8C0185E0F801DE0109
:102B80001D9601900D928A95E1F7F80140815181DF
:102B9000E2808BE0C82E82E0D82E60910E02709108
:102BA0000F026115710509F461C190910B0220912A
:102BB0000C02892F82238F3F09F458C1A380B4806F
:102BC000F0900D02F501E61BF70BFF2009F4FCC0A5
:102BD00080911002382F307FE83CF10508F0B2C038
:102BE000311179C0FE2C251323C0941321C0E110AC
:102BF0001FC08F708061809310020E944615C6012D
:102C00000E94A11480911002F80185838F2D619696
:102C10000FB6F894DEBF0FBECDBFDF91CF911F91ED
:102C20000F91FF90EF90DF90CF90BF90AF900895FD
:102C3000AB2829F0842F85238F3F09F033C180E032
:102C4000F82FF170DF2E80FF3CC08091D9012091D8
:102C5000DA0136E0821315C04D875E878D859E852B
:102C60000E940A1A292F22952F702230F0F024306A
:102C700018F59F70F1F0F8019581907FD1F4D12C77
:102C80001EC090E0389FF001399FF00D1124E552ED
:102C9000FE4F6181651306C06081641303C06281C9
:102CA0006E110FC001968770D5CF9F7011F08823E9
:102CB00031F3805E883018F3C8010E94A114FD2C06
:102CC000A5CFEE2009F4A2CF8091100281608093FD
:102CD0001002F12C9BCF251306C0941304C0F801F9
:102CE000EE2009F48DC04D875E878D859E850E94FC
:102CF0000215882319F1EE2009F18091100280322B
:102D000070F020910B0230910C0238872F831986C6
:102D1000BB86AA868C87CE0107960E94A11486E006
:102D2000F801ABE0B2E001900D928A95E1F70E94C4
:102D300054150E944615FF24F39468CFC8010E94E1
:102D4000A114F9CF311113C07A2DB98AA88A6E2D3A
:102D500089890E9406158BE092E00E94A11486E00A
:102D6000F60111928A95E9F70E944615B2CF251314
:102D70000FC094130DC0E1100BC0F8018583C8018A
:102D80000E94A11486E0F60111928A95E9F73ECFE0
:102D90004D875E878D859E850E940215882371F27E
:102DA000EE2061F280911002803208F4B8CF2091B9
:102DB0000B0230910C023A8329831B82BD82AC82C4
:102DC0008E83CE010196A9CFE83CF10508F041C001
:102DD000FE2CEE2009F4B2CF25132AC0941328C08C
:102DE0008091100280FD1BC0982F907FC1F0F801E8
:102DF0008583903F31F0982F907F905F8F70892B63
:102E00008583C8010E94A11486E0F801ABE0B2E01E
:102E100001900D928A95E1F70E944615F7CE86E063
:102E2000F801ABE0B2E001900D928A95E1F7EECEA9
:102E30004D875E878D859E850E94021581116FCF1B
:102E400080911002816080931002C8010E94A11439
:102E5000DDCE7A2DB98AA88A6E2D89890E94061541
:102E600086E0F60111928A95E9F7D6CFEE2009F4B3
:102E700065CF4D875E878D859E850E940215F82E51
:102E8000882309F45BCF86E0F801ABE0B2E0019063
:102E90000D928A95E1F78BE092E00E945A110E9410
:102EA0005415BACF81E08E25CBCE1F93CF93DF93FD
:102EB000CDB7DEB72C970FB6F894DEBF0FBECDBFEF
:102EC0004F83588769877A878B879C87CE010796BF
:102ED0000E94AA15882369F08A859B85892B39F081
:102EE0004F815885842F85238F3F09F071C016E0EC
:102EF0005FC086E0FE013796DE01119601900D92CB
:102F00008A95E1F78A859B85892B89F38F8198853E
:102F100089238F3F61F32091DA0130E0C9010196E6
:102F2000877099274091D9014817190671F40E94BA
:102F3000DF141092DA011092D90186E0EBE0F2E0A2
:102F4000DF011D928A95E9F7D2CF96E0929FD001DA
:102F5000939FB00D1124A552BE4FFE0131960190F2
:102F60000D929A95E1F78093DA010E942515BFCF63
:102F7000819FC001112485529E4F0E94AA1588236B
:102F8000E9F0E091D9011E9FF0011124E552FE4FB6
:102F90004081518162817381848195810E941515E0
:102FA0008091D90190E00196877099278093D9018B
:102FB0008091D9019091DA018913DACF2C960FB65E
:102FC000F894DEBF0FBECDBFDF91CF911F91089562
:102FD00069857A858B859C850E94151588CFEF922F
:102FE000FF920F931F93CF93DF938C01892B81F076
:102FF000F12CEE24E394E8012196F80184918437C2
:1030000070F4843008F05FC08130B1F08230A1F1FB
:10301000DF91CF911F910F91FF90EF900895853729
:1030200009F44CC008F43DC09CE7980F903780F736
:103030008F770E94F11149C00E5F1F4FFE018491EE
:1030400090E2980F983060F48770FE2D01C0FF0F5A
:103050008A95EAF78F2F0E94A11A0E94CE1A02C009
:103060000E945F118F2D815030F2EFE9FFE0319720
:10307000F1F700C00000F7CF0E5F1F4FFE018491F3
:1030800090E2980F983050F48770FE2D01C0FF0F2A
:103090008A95EAF78F2F0E94A71ADFCF0E94F111BD
:1030A000E1CF0E5F1F4FFE01C491C150D8F28FE9EE
:1030B0009FE00197F1F700C00000F7CF0E5F1F4FB0
:1030C000FE01F490CFCF0E945F118E01CBCF089507
:1030D0000C9467180E94681860932402709325026C
:1030E00080932602909327020C94C91408950C949F
:1030F0006A180F931F9300912402109125022091CA
:10310000260230912702602B712B822B932B1F916B
:103110000F910C946A180F931F9300912402109141
:1031200025022091260230912702602371238223F9
:1031300093231F910F910C946A180F931F93009182
:103140002402109125022091260230912702602747
:103150007127822793271F910F910C946A180C9462
:1031600067180C94AF180E94B118609320027093F6
:10317000210280932202909323020C94C91460E0F0
:1031800070E0CB010C94B3180F931F9341E050E013
:1031900060E070E08A019B0104C0000F111F221F34
:1031A000331F8A95D2F7C901B8011F910F910C9472
:1031B000B3180F931F9341E050E060E070E004C04B
:1031C000440F551F661F771F8A95D2F78091200202
:1031D00090912102A0912202B09123028A019B01C9
:1031E000082B192B2A2B3B2BC901B8011F910F91DA
:1031F0000C94B3180F931F9341E050E060E070E02F
:1032000004C0440F551F661F771F8A95D2F7CB0164
:10321000BA0160957095809590950091200210916B
:103220002102209122023091230260237123822304
:1032300093231F910F910C94B3180F931F9341E0A8
:1032400050E060E070E004C0440F551F661F771F18
:103250008A95D2F78091200290912102A0912202BA
:10326000B09123028A019B01082719272A273B27AF
:10327000C901B8011F910F910C94B3180F931F93BC
:10328000009120021091210220912202309123020C
:10329000602B712B822B932B1F910F910C94B318E1
:1032A0000F931F930091200210912102209122027E
:1032B0003091230260237123822393231F910F9166
:1032C0000C94B3180F931F930091200210912102C8
:1032D00020912202309123026027712782279327B1
:1032E0001F910F910C94B3180895990F990F890F9E
:1032F000982F977041E001C0440F9A95EAF78695A0
:103300008695869595E0899FF0011124EF5EFD4F2B
:1033100030E020E070E05191DF011197CB01022EE7
:1033200002C0969587950A94E2F78170819585276A
:10333000842385278C932F5F3F4F2530310559F724
:103340000895990F990F890F982F977086958695F4
:10335000869525E0829FF0011124EF5EFD4F50E03D
:1033600040E080E0219130E0092E02C0369527959B
:103370000A94E2F721703327042E01C0220F0A9429
:10338000EAF7822B4F5F5F4F4530510559F708959B
:10339000BF92CF92DF92EF92FF920F931F93CF9342
:1033A000DF938C01C0902002D0902102E090220295
:1033B000F09023028091240290912502A091260290
:1033C000B0912702C82AD92AEA2AFB2ACFE1D0E005
:1033D000BC2ED701C6010C2E04C0B695A7959795B3
:1033E00087950A94D2F780FD0EC0219788F7B12CFB
:1033F0008B2DDF91CF911F910F91FF90EF90DF9078
:10340000CF90BF900895B8018C2F0E941E040197A1
:1034100061F3EECFCF93DF93EC010E94C819BE0198
:10342000DF91CF910C941E041F93CF93DF93EB0198
:103430009091D801992331F0CB01DF91CF911F9169
:103440000C940A1A882379F0CB010E94C819182F0E
:10345000682FCE010E947519BE01812FDF91CF9197
:103460001F910C941E04CB010E94A119182FF4CFB8
:10347000682F80910801909109010C94831C682F9A
:1034800080910801909109010C948E1C8091080193
:10349000909109010C94991C80912802859585953D
:1034A000859508958091280287700895909128024B
:1034B000977081E009F480E008959091720292FB88
:1034C000222720F9281751F080FB92F9909372027D
:1034D00080917102909172020C94641B0895809106
:1034E000720282FB882780F991E089270C945D1A8B
:1034F00081E00C945D1A80E00C945D1A80914C027E
:10350000089590914C02892B80934C0208958095E8
:1035100090914C02982390934C02089510924C0283
:10352000089590914B02892B80934B0208958095CA
:1035300090914B02982390934B02089510924B0266
:10354000089590914A02892B80934A0208958095AC
:1035500090914A02982390934A02089510924A0249
:10356000089580912902089508950C94B41A9091B9
:10357000720292FD08C090912902981721F0809361
:1035800029020C94B51A089580912902882329F004
:103590001092290280E00C94B51A0895E091080178
:1035A000F091090180914C028083E0910801F09133
:1035B0000901808190914B02892B8083E091080161
:1035C000F0910901808190914A02892B808390912A
:1035D0002902992381F0E0910801F091090180818D
:1035E000892B808380910801909109010E94EF1B33
:1035F00081110E94C41A80910801909109010C94D4
:10360000DF0F08950C94011B9091720292FD10C07F
:1036100098E0899F90011124622B609328020E94F8
:10362000D918809128028595859585950C94021B63
:103630000C94D9181092280280E00C94021B9091EF
:1036400028028095892380932802282F277039F437
:10365000282F082E000C330B9217130621F490919B
:10366000720292FF07C08595859585950E94FA188C
:103670000C941A1B089580E008956FEF7FEF90E09F
:1036800080E00C94712590E080E00E944D2521E0BF
:103690008A3E9E4F09F020E0822F089582E090E05C
:1036A0000C94452583E090E00C944525CF9384E06D
:1036B00090E00E944525C82F82E290E00E944525B7
:1036C000982F8C2FCF910895CF93C92F682F84E026
:1036D00090E00E9453256C2F82E290E0CF910C94F1
:1036E0005325AB01BC018FE090E00C946525AB0144
:1036F000BC0183E190E00C94652560E070E0CB01B3
:103700000C94771B60E070E0CB010E94711B0C945D
:103710007D1B6AEE7EEF90E080E00E94712560E004
:1037200082E090E00E94532560E083E090E00E94F8
:103730005325109224021092250210922602109214
:10374000270260E084E090E00E94532560E082E27E
:1037500090E00E94532560E085E090E00E945325B0
:1037600060E086E090E00E9453256FEF87E090E0F4
:103770000E94532540E050E0BA0188E090E00E94AA
:10378000652560E08DE090E00E94532540E050E028
:10379000BA0188E190E00E94652560E087E190E051
:1037A0000E94532540E050E0BA018CE190E00E9475
:1037B000652570E060E080E290E00E94712540E0C5
:1037C00050E0BA0188E190E00E9465250C94821BCC
:1037D0000C94891B682F8EE090E00C945325FC011B
:1037E000329680911401882321F0809171029EE12C
:1037F00087FF96E080E0915008F4089521912223FC
:10380000D1F38F5FF8CF662301F1209114012223B9
:10381000F1F02091710227FF1AC0462F4695469578
:1038200046954E3190F4677021E030E002C0220FDF
:10383000331F6A95E2F7840F911DFC01828190E0AD
:103840002823392381E0232B69F480E00895FC01CB
:10385000329608962191261721F0E817F907D1F73B
:10386000F4CF81E008959C01FC0132969FEF80E047
:103870004191461751F09F3F19F4411101C0982F13
:103880008F5F8630A9F79F3F09F40895290F311DF6
:1038900097FD3A95F90162830895FC0132960896E6
:1038A0002191261303C0DF0111971C92E817F90735
:1038B000B9F70895E62FE695E695E695EE3168F4BA
:1038C000E80FF92FF11D677021E030E001C0220FF1
:1038D0006A95EAF78281822B82830895E62FE69526
:1038E000E695E695EE3170F4E80FF92FF11D67705B
:1038F00021E030E001C0220F6A95EAF7209582812D
:1039000028232283089520911401222329F0209155
:10391000710227FD0C945A1C0C94331C2091140145
:10392000222329F02091710227FD0C946E1C0C9427
:103930004D1CFC01329680911401882351F0809136
:10394000710287FF06C08EE1DF011D928A95E9F7BB
:10395000089586E0F9CF089508950C94AC1C8091E9
:103960008502843049F10E94AD1C80E00E940A0467
:1039700010924E0288E190E020E40FB6F894A895EA
:10398000809360000FBE2093600083B7817F8460C6
:1039900083BF83B7816083BF7894889583B78E7F18
:1039A00083BF0FB6F894A8958091600088618093DA
:1039B0006000109260000FBE08950895CF930E949A
:1039C000AB1C0E94AD060E94DD1CC0E08C2F0E9443
:1039D0005206811105C0CF5FC530C1F7CF91089560
:1039E00081E0FCCF08950C94F21C0E94DF140E9429
:1039F000D30F0E940A040C94F31C1F921FB61F924F
:103A000011248F939F93AF93BF9380914E028111A6
:103A100013C080917D0290917E02A0917F02B091AF
:103A200080024196A11DB11D80937D0290937E027C
:103A3000A0937F02B0938002BF91AF919F918F912D
:103A40001F901FBE1F90189582E084BD93E095BD26
:103A50009AEF97BD80936E0008952FB7F8948091E8
:103A60007D0290917E02A0917F02B09180022FBFD3
:103A700008952FB7F89460917D0270917E02809135
:103A80007F02909180022FBF08959C014FB7F89458
:103A900080917D0290917E02A0917F02B091800280
:103AA0004FBF821B930B089578941F921FB61F92ED
:103AB00011248F939F93AF93BF9380917D02909138
:103AC0007E02A0917F02B09180020196A11DB11DDE
:103AD00080937D0290937E02A0937F02B093800238
:103AE000BF91AF919F918F911F901FBE1F9018950E
:103AF00081E08093E00080E28093D8001092C900BA
:103B00008FE19EE40197F1F700C0000087E090EBA1
:103B1000DC0180938E0290938F02A0939002B09369
:103B2000910288E19CE00FB6F894A895809360001C
:103B30000FBE90936000FFCF9093A5018093A401E6
:103B4000089580916F020895CF93DF9300D00F9274
:103B5000CDB7DEB790918502943011F589837B83D0
:103B60006A839093E9008FEF9091E800815095FD72
:103B700006C095ED9A95F1F700008111F5CF80917F
:103B8000E80085FF0DC050E040E063E070E0CE014A
:103B900001960E9430208091E8008E778093E800A3
:103BA0000F900F900F90DF91CF910895BC0184E0AA
:103BB0000C94A41DBC0183E00C94A41D9C0184E022
:103BC0008093E9009FEF8091E800915085FD06C049
:103BD00085ED8A95F1F700009111F5CF8091E8000D
:103BE00085FF0CC050E040E066E070E0C9010E9433
:103BF00030208091E8008E778093E8000895CF937D
:103C0000DF93EC01809114018823B1F1809171025E
:103C100087FF32C060E284E08093E9008FEF9091EB
:103C2000E800815095FD06C095ED9A95F1F70000EA
:103C30008111F5CF8091E80085FF1BC080911401B0
:103C400070E050E040E0811104C050E040E068E0E6
:103C500070E0CE010E9430208091E8008E77809342
:103C6000E80080E2FE01AFE4B2E001900D928A9597
:103C7000E1F7DF91CF91089568E081E0CDCFCF9358
:103C8000FC01603221F580918502843001F5C091FC
:103C9000E900CF702091EC00922F917020FD90E808
:103CA000C92B82E08093E9008091E80080FF0CC07E
:103CB00050E040E060E270E0CF010E94302080914F
:103CC000E8008E778093E800CF70C093E900CF9131
:103CD000089580918402811109C00E940F220E94E0
:103CE0006C228091E20084608093E200089510923B
:103CF0008402089508950895089542E061EC81E0FA
:103D00000E948B2142E261EC84E00E948B2142E21E
:103D100061EC82E00E948B2142E260EC83E00C9433
:103D20008B2180918702833009F461C030F48130A7
:103D3000D1F1823009F49DC008958A3009F489C018
:103D40008B3009F46FC0893009F050C08091860231
:103D5000813209F04BC080918A0290918B020097CA
:103D600019F0029709F042C08091E800877F8093A4
:103D7000E8008091E80082FF35C09091F3008091C7
:103D8000F200029729F48091F1008B7F813021F4B9
:103D90008091F10080936F028091E8008B7780938F
:103DA000E8000C94BF2180918602813AF9F4809159
:103DB000E800877F8093E80080918A0290918B02CF
:103DC000892B61F460E28FE492E070E00E94CE20E3
:103DD0008091E8008B778093E800089560E090E0A0
:103DE00080E0F3CF809185028111C3CF0895809147
:103DF0008602813AD9F780918A0290918B02892BB1
:103E0000A9F78091E800877F8093E8008091E8001F
:103E100080FFFCCF809114018093F1008091E80035
:103E20008E77BDCF80918602813201F780918A0220
:103E300090918B02892BD1F68091E800877F809347
:103E4000E8000E94BF2180918802809314010C94A5
:103E5000DF1480918602813249F68091E800877FE5
:103E60008093E8000E94BF218091890280937002B4
:103E7000089580918602813A09F0B8CF8091E800D8
:103E8000877F8093E8008091E80080FFFCCF8091DD
:103E90007002C2CFCDB7DEB7A0970FB6F894DEBFE1
:103EA0000FBECDBF84B7877F84BF0FB6F894A895A7
:103EB00080916000886180936000109260000FBE66
:103EC00080E890E00FB6F8948093610090936100D1
:103ED0000FBE0E9467100E940F220E946C228091E8
:103EE000E20084608093E20078940E94F5240E94AE
:103EF0007B108AE091E00E94CE0F13E08091850252
:103F00008530B9F00E948510809185028430C1F01F
:103F10000E947710F3CF0E94AF1C80918302882308
:103F200041F00E94DE1C882321F00E941A200E948A
:103F3000DF1480918502853071F30E94F51CE2CF79
:103F40001093E9008091E80082FFE2CF8091E800C1
:103F500090E085FF09C050E040E060E270E0CE01F3
:103F600001960E947F2091E08091E8008B778093FA
:103F7000E800992369F260E2CE0101960E947D0B70
:103F8000C7CF0C94C31F292F33272330310521F1CC
:103F900068F42130310509F443C02230310509F4B9
:103FA00044C090E080E030E020E026C021323105BE
:103FB00051F122323105A9F76330710590F7FB0109
:103FC000EE0FFF1FE956FE4F208131816C567E4F68
:103FD000FB01808190E010C099278130910581F02C
:103FE000009729F00297E9F6ECEAF1E002C0E2ED71
:103FF000F1E0849190E09F01FA01318320830895DC
:10400000EAEBF1E0F6CF6330710558F6660F771FE3
:10401000FB01E356FE4F2081318189E090E0ECCF37
:1040200082E190E021E332E0E7CF8BE590E026EDFE
:1040300031E0E2CF80E189BD82E189BD09B400FEB3
:10404000FDCF8091D8008F7D8093D8008091E000D3
:1040500082608093E0008091E00081FDFCCF0895B4
:10406000AF92BF92CF92DF92FF920F931F93CF93A5
:10407000DF936C01EB018A010E94DE21F82E811191
:1040800023C00115110539F0F80180819181C81B09
:10409000D90BC80ED91EB12CA12C2097A9F0809164
:1040A000E80085FD22C08091E8008E778093E800CB
:1040B00001151105A1F0F80180819181A80EB91EAA
:1040C000B182A08285E0F82E8F2DDF91CF911F91D4
:1040D0000F91FF90DF90CF90BF90AF9008950E9416
:1040E000DE218823D1F2F82EEFCFF60181916F0106
:1040F0008093F1002197FFEFAF1ABF0ACECFAF92A6
:10410000BF92CF92DF92FF920F931F93CF93DF93D3
:104110006C01EB018A010E94DE21F82E811123C07F
:104120000115110539F0F80180819181C81BD90B67
:10413000C80ED91EB12CA12C2097A9F08091E800BF
:1041400085FD22C08091E8008B778093E8000115FF
:104150001105A1F0F80180819181A80EB91EB182EC
:10416000A08285E0F82E8F2DDF91CF911F910F91C6
:10417000FF90DF90CF90BF90AF9008950E94DE2116
:104180008823D1F2F82EEFCF8091F100F6018193D0
:104190006F012197FFEFAF1ABF0ACECFFC018091CC
:1041A0008C0290918D0286179707A0F0611571051A
:1041B00029F49091E8009E779093E80090E06115D3
:1041C000710551F4911108C08091E80082FF34C05C
:1041D00080E00895BC01F2CF809185028823C1F16F
:1041E0008530C1F18091E80083FD30C08091E80006
:1041F00082FDEACF8091E80080FFE1CF8091F3005B
:104200002091F200382F6115710519F02830310521
:1042100058F091E02830310509F090E02091E80055
:104220002E772093E800CBCF81918093F1006150ED
:1042300071092F5F3F4FE7CF80918502882341F0BE
:10424000853041F08091E80083FFBECF81E0089582
:1042500082E0089583E00895FC0180918C029091A2
:104260008D0286179707A0F06115710529F48091DA
:10427000E8008E778093E80090E06115710551F4B5
:10428000911108C08091E80082FF35C080E0089558
:10429000BC01F2CF809185028823C9F18530C9F134
:1042A0008091E80083FD31C08091E80082FDEACF73
:1042B0008091E80080FFE1CF8091F3002091F2002F
:1042C000382F6115710519F02830310558F091E04B
:1042D0002830310509F090E08091E8008E778093D6
:1042E000E800CBCF84918093F10031966150710941
:1042F0002F5F3F4FE6CF80918502882341F08530C4
:1043000041F08091E80083FFBDCF81E0089582E015
:10431000089583E00895982F973028F08F70809348
:10432000E90081E008959093E900242F762F50E072
:10433000981731F07091EC002091ED005091F00051
:1043400021FD02C09F5FE8CF3091EB003E7F3093AC
:10435000EB003091ED003D7F3093ED003091EB00AC
:1043600031603093EB007093EC002093ED0050939C
:10437000F0002091EE0027FDE5CF80E008958091C8
:10438000860287FF13C08091E80082FF06C08091FB
:10439000E8008B778093E80004C08091850281114A
:1043A000F2CF0895809185028823D9F38091E800A7
:1043B00080FFF8CF8091E8008E77ECCF2091E40069
:1043C0003091E50095E6A9012091EC00822F8170E3
:1043D00020FF06C08091E80080FF06C080E00895BD
:1043E0002091E80022FD1AC080918502882389F07F
:1043F000853089F08091EB0085FD0FC02091E400AD
:104400003091E50042175307F9F29150E1F684E04C
:10441000089582E0089583E0089581E008950E9460
:104420007D220E948522E0EEF0E080818160808321
:10443000E8EDF0E080818F77808319BCA7EDB0E0D4
:104440008C918E7F8C9380818F7E808310928402EA
:1044500008950F931F93CF93DF930E947D220E94B4
:104460008522C8EDD0E088818F7788838881806835
:10447000888388818F7D888319BC10928502109271
:104480008102109283021092820200EE10E0F80185
:1044900080818B7F808388818160888342E060E0B7
:1044A00080E00E948B21E1EEF0E080818E7F8083AE
:1044B000E2EEF0E08081816080838081886080838B
:1044C000F80180818E7F8083888180618883DF917D
:1044D000CF911F910F910895E8EDF0E080818F7EDC
:1044E0008083E7EDF0E080818160808384E082BF9B
:1044F00081E0809384020C942922E8EDF0E0808131
:104500008E7F80831092E20008951092DA0010925C
:10451000E10008951F920F920FB60F9211242F936E
:104520003F934F935F936F937F938F939F93AF933B
:10453000BF93EF93FF938091E10082FF0BC08091C6
:10454000E20082FF07C08091E1008B7F8093E10051
:104550000E94F4248091DA0080FF19C08091D80075
:1045600080FF15C08091DA008E7F8093DA00809101
:10457000D90080FF96C080E189BD82E189BD09B480
:1045800000FEFDCF81E0809385020E94691E80912C
:10459000E10080FF19C08091E20080FF15C080918A
:1045A000E2008E7F8093E2008091E2008061809340
:1045B000E2008091D80080628093D80019BC85E029
:1045C000809385020E947B1E8091E10084FF2BC0B6
:1045D0008091E20084FF27C080E189BD82E189BD2E
:1045E00089B5982F917080FFFBCF8091D8008F7D87
:1045F0008093D8008091E1008F7E8093E1008091CC
:10460000E2008F7E8093E2008091E20081608093DF
:10461000E20080918102882309F449C084E08093FC
:1046200085020E947C1E8091E10083FF29C0809159
:10463000E20083FF25C08091E100877F8093E10045
:1046400082E080938502109281028091E1008E7F4A
:104650008093E1008091E2008E7F8093E200809160
:10466000E20080618093E20042E060E080E00E942E
:104670008B218091F00088608093F0000E947A1E68
:10468000FF91EF91BF91AF919F918F917F916F912A
:104690005F914F913F912F910F900FBE0F901F9000
:1046A000189519BC109285020E94771E70CF8091D8
:1046B000E30087FD93E090938502B3CF1F920F92A2
:1046C0000FB60F9211242F933F934F935F936F93E5
:1046D0007F938F939F93AF93BF93CF93DF93EF938A
:1046E000FF93D091E900DF708091EC00C82FC1707A
:1046F00080FDC0E81092E9008091F000877F8093F0
:10470000F00078940E94A2231092E9008091F000BA
:1047100088608093F000CD2BCF70C093E900FF91AB
:10472000EF91DF91CF91BF91AF919F918F917F9149
:104730006F915F914F913F912F910F900FBE0F900E
:104740001F9018951F93CF93DF93CDB7DEB7AA972D
:104750000FB6F894DEBF0FBECDBF86E892E0209181
:10476000F100FC012193CF01F2E08E389F07B9F7E9
:104770000E94911E8091E80083FF1EC180918602F5
:10478000909187029A3008F017C1E92FF0E0E654C3
:10479000FA4D0C942425803899F0823809F00CC128
:1047A00080918A028F70873008F006C18093E900FB
:1047B0008091EB0085FB882780F91092E90006C004
:1047C0008091820290918302911182609091E80021
:1047D000977F9093E8008093F1001092F100809110
:1047E000E8008E77E5C0882309F4D3C0823009F051
:1047F000E3C0809188028111D6C080918A028F70B7
:104800002FEF280F263008F0D7C08093E9002091C1
:10481000EB0020FFC8C0933031F48091EB00806240
:104820008093EB00C0C09091EB0090619093EB00FF
:1048300021E030E001C0220F8A95EAF72093EA00D8
:104840001092EA008091EB008860EACF8111B4C039
:10485000109188021F778091E3008078812B8093EC
:10486000E3008091E800877F8093E8000E94BF21E9
:104870008091E80080FFFCCF8091E3008068809306
:10488000E30082E0111183E08093850295C0805897
:10489000823008F091C080918802909189028C3D0D
:1048A00023E09207A1F583E08A838AE289834FB7E8
:1048B000F894DE01139620E03EE051E2E32FF0E0B1
:1048C00050935700E49120FF03C0E295EF703F5FE3
:1048D000EF708E2F90E0EA30C0F0C7968D939D93D5
:1048E0002F5F243159F74FBF8091E800877F809375
:1048F000E8006AE270E0CE0101960E94CE2080912D
:10490000E8008B778093E80057C0C096E7CF6091AE
:104910008A0270918B02AE014F5F5F4F0E94C11FF0
:10492000BC01892B09F448C09091E800977F9093CF
:10493000E80089819A810E942C21E1CF8038E1F53D
:104940008091E800877F8093E800809181028093C6
:10495000F10045CF811130C090918802923060F50E
:104960008091E800877F8093E800909381020E9405
:10497000BF2180918102882311F084E005C08091DD
:10498000E30087FDFACF81E0809385020E947D1EBF
:1049900013C080918802813079F481E0933009F06E
:1049A00080E0809383021092E9008091E800877F85
:1049B0008093E8000E94BF218091E80083FF0AC035
:1049C0008091E800877F8093E8008091EB0080620F
:1049D0008093EB00AA960FB6F894DEBF0FBECDBF52
:1049E000DF91CF911F9108950895CF938091850213
:1049F0008823A1F0C091E900CF709091EC00892F3D
:104A0000817090FD80E8C82B1092E9008091E80049
:104A100083FD0E94A223CF70C093E900CF91089537
:104A200097FB072E16F4009407D077FD09D00E945B
:104A3000312507FC05D03EF4909581959F4F089550
:104A4000709561957F4F0895EE0FFF1F0590F491CB
:104A5000E02D0994692796276927782787277827E3
:104A60000895AA1BBB1B51E107C0AA1FBB1FA617B5
:104A7000B70710F0A61BB70B881F991F5A95A9F707
:104A800080959095BC01CD010895F999FECF92BD16
:104A900081BDF89A992780B50895A8E1B0E042E079
:104AA00050E00C947925262FF999FECF92BD81BD57
:104AB000F89A019700B4021639F01FBA20BD0FB65C
:104AC000F894FA9AF99A0FBE08950396272F0E9438
:104AD00054250E945325252F0E945425242F0C94E1
:104AE00054250196272F0E9454250C945325DC0150
:104AF000CB01FC01F999FECF06C0F2BDE1BDF89AE9
:104B0000319600B40D9241505040B8F70895F89492
:104B1000FFCF8F0B9C0BC30BCF0BDA0BE50BE80B16
:104B2000E80BE80BE80BE80BEB0BEF0BF70B040CB7
:104B3000110C140C170C240CA812A812001300134B
:104B400052136E13D512D5127913051414141414BC
:104B50007014D512D5127914EE14EE14F714F7145C
:104B6000F914F714F714F714EE14EE14FE14F714F6
:104B7000F714FE14CB23F323DC24F323DC242624B4
:084B80004724DC249E24AA2432
:104B88002808641E140A321E2A02A11DFF1DDE1DFC
:104B9800DA1DD61D01E200E900EA00B500B600B74B
:104BA80000CD008301CC008A0192019401210223E7
:104BB8000224022502260227022A02B300B4006F4B
:104BC800007000818283F0F1F4F5676636353400B1
:104BD800FF0100010000FFFF0000010001FF009538
:104BE800929391E200E900EA00B500B600B700CD63
:104BF800008301CC008A019201940121022302243E
:104C0800022502260227022A02B300B4006F0070B0
:104C1800008182834022B61B0343026502E801013A
:044C28000221020063
:00000001FF
